:100000000C943E000C9448000C9448000C9448005A
:100010000C9448000C9448000C9448000C94480040
:100020000C9448000C9448000C9448000C94480030
:100030000C9448000C9448000C9448000C94480020
:100040000C9448000C9448000C9448000C94480010
:100050000C9448000C9448000C9448000C94480000
:100060000C9448000C9448000C9448000C944800F0
:100070000C9448000C9448000C94480011241FBEB6
:10008000CFEFD8E0DEBFCDBF0E944A000C948100C4
:100090000C94000081B18C7F81B982B1836082B9F8
:1000A0008FEF87B98AB91BB88EE090E000991EC027
:1000B00018161906B4F42FEF31EE44E02150304009
:1000C0004040E1F700C000005D9A01972FEF33EC4C
:1000D00049E0215030404040E1F700C000005D9809
:1000E00007C0009729F080E090E002C05D985F981B
:1000F0000199DCCF019680319105C4F28FE090E048
:06010000D5CFF894FFCFFB
:00000001FF
