:100000000C943E000C9453000C9453000C94530039
:100010000C9453000C9453000C9453000C94530014
:100020000C9453000C9453000C9453000C94530004
:100030000C9453000C9453000C9453000C945300F4
:100040000C9453000C9453000C9453000C945300E4
:100050000C9453000C9453000C9453000C945300D4
:100060000C9453000C9453000C9453000C945300C4
:100070000C9453000C9453000C94530011241FBE95
:10008000CFEFD8E0DEBFCDBF11E0A0E0B1E0ECE201
:10009000F5E002C005900D92A430B107D9F70E9497
:1000A00025010C9494020C94000088EC90E090934D
:1000B00089008093880090938B0080938A00E0E809
:1000C000F0E08081826A8083E1E8F0E080818B61EA
:1000D000808387E893E1909387008093860008955A
:1000E0008AB180638AB908958CE020E030E0F9019C
:1000F0003197F1F7F9013197F1F7F9013197F1F7FC
:100100008150A9F708950E94210280FD07C088EC64
:1001100090E09093890080938800089588EC90E0A7
:1001200090938B0080938A0008950F931F93CF9331
:10013000DF93CAE0D0E000E911E00E9483002FEFD6
:1001400083EC99E0215080409040E1F700C000002E
:100150008091880090918900883C910521F410934A
:1001600089000093880080918A0090918B00883CE0
:10017000910521F410938B0000938A002197E9F6F2
:10018000DF91CF911F910F9108950F931F93CF93FC
:10019000DF93CAE0D0E000E911E00E948300809183
:1001A000880090918900883C910521F41093890082
:1001B0000093880080918A0090918B00883C910583
:1001C00021F410938B0000938A002FEF81EE94E0CE
:1001D000215080409040E1F700C000002197E9F6EF
:1001E000DF91CF911F910F9108950F931F93CF939C
:1001F000DF93CAE0D0E000E911E00E948300809123
:10020000880090918900883C910521F41093890021
:100210000093880080918A0090918B00883C910522
:1002200021F410938B0000938A002FEF80E792E077
:10023000215080409040E1F700C000002197E9F68E
:10024000DF91CF911F910F9108950E9455000E9458
:100250007000C0E9D1E088ECE82EF12CD093890041
:10026000C0938800D0938B00C0938A002FEF83EC5B
:1002700099E0215080409040E1F700C00000F092EA
:100280008900E0928800F0928B00E0928A0004E1FD
:1002900010E00E9483002FEF8FE19EE42150804008
:1002A0009040E1F700C000008091880090918900A3
:1002B000883C910521F4D0938900C09388008091F7
:1002C0008A0090918B00883C910521F4D0938B009B
:1002D000C0938A002FEF8FE097E22150804090403A
:1002E000E1F700C000000150110999F604E110E0A7
:1002F0000E9483002FEF8FE097E2215080409040D2
:10030000E1F700C000008091880090918900883C4E
:10031000910521F4D0938900C093880080918A00D0
:1003200090918B00883C910521F4D0938B00C09371
:100330008A002FEF87E893E1215080409040E1F759
:1003400000C000000150110999F604E110E00E947C
:1003500083002FEF87E893E1215080409040E1F740
:1003600000C000008091880090918900883C910530
:1003700021F4D0938900C093880080918A009091E5
:100380008B00883C910521F4D0938B00C0938A00A8
:100390002FEF83EC99E0215080409040E1F700C0BE
:1003A00000000150110999F659CF8F929F92AF9298
:1003B000BF92CF92DF92EF92FF92CF93DF93EC0147
:1003C000688179818A819B8161157105810591051B
:1003D00021F464E279ED8BE597E02DE133EF41E024
:1003E00050E00E94310249015A019B01AC01A7EA89
:1003F000B1E40E9450026B017C01ACEEB4EFA501A8
:1004000094010E945E02DC01CB018C0D9D1DAE1D8E
:10041000BF1DB7FF03C00197A109B0488883998326
:10042000AA83BB839F77DF91CF91FF90EF90DF90FE
:10043000CF90BF90AF909F908F9008950E94D5016C
:10044000089580E091E00E94D5010895A0E0B0E019
:100450008093000190930101A0930201B0930301E6
:100460000895052E97FB1EF400940E94480257FD44
:1004700007D00E94630207FC03D04EF40C9448029C
:1004800050954095309521953F4F4F4F5F4F0895C0
:1004900090958095709561957F4F8F4F9F4F0895F0
:1004A0000E948502A59F900DB49F900DA49F800D82
:1004B000911D11240895B7FF0C9450020E94500220
:1004C000821B930B0895A1E21A2EAA1BBB1BFD01F0
:1004D0000DC0AA1FBB1FEE1FFF1FA217B307E40723
:1004E000F50720F0A21BB30BE40BF50B661F771F7B
:1004F000881F991F1A9469F760957095809590955B
:100500009B01AC01BD01CF010895A29FB001B39F33
:10051000C001A39F700D811D1124911DB29F700D0C
:0C052000811D1124911D0895F894FFCF57
:04052C0001000000CA
:00000001FF
